:100000008A11FD2F00308A000408840A8207003418
:10001000013400340A34003464340034E8340334E6
:100020001034273447344534543420342F34613469
:1000300031342E347034683470343F347634313493
:100040003D34253469342634763432343D34253415
:1000500069342634763433343D34253473342034D3
:1000600048345434543450342F3431342E343134F1
:100070000D340A340034413454342B34433449347D
:100080005034533454344134523454343D34223493
:1000900054344334503422342C34223464346F3496
:1000A0006D34613469346E342E3463346F342E34DD
:1000B00075346B3422342C34253464340D340A34D2
:1000C0000034413454342B34433457344A344134AB
:1000D00050343D342234533453344934443422347C
:1000E0002C342234503441345334533457344F3445
:1000F0005234443422340D340A34003448344F34FA
:10010000533454343A34203464346F346D346134AD
:1001100069346E342E3463346F342E3475346B345A
:100120000D340A340D340A340034413454342B3441
:10013000433449345034533445344E3444343D34DC
:10014000253469340D340A340034413454342B34AA
:10015000433457344D344F34443445343D342534DE
:1001600064340D340A340034413454342B34523462
:10017000533454340D340A34003428346E34753416
:100180006C346C34293400344F34463446340034F3
:060190004F344E34003430
:100AAC00F000831203130C1E572D700899000800D8
:100ABC007808790403198B2DFD01FD0AF91B722DA1
:100ACC0001300310F80DF90DFF3E031D672D0130A9
:100ADC00FC007C08FD07642D79087B02031D782D32
:100AEC0078087A02031C802D7808FA027908031C16
:100AFC00FB03FB0201300310F90CF80CFF3E031D45
:100B0C00812D0130FD02031D722D7B08F9007A083E
:100B1C00F8000800F501F601700871040319C72DDF
:100B2C00F701F70AF11BA62D01300310F00DF10DA2
:100B3C00FF3E031D9B2D0130F4007408F707982D20
:100B4C0001300310F50DF60DFF3E031DA72D7108A6
:100B5C007302031DB32D70087202031CBC2D7008A8
:100B6C00F2027108031CF303F30275140130031035
:100B7C00F10CF00CFF3E031DBD2D0130F702031DDF
:100B8C00A62D7608F1007508F000080083120313F7
:100B9C00B000A901AA012030A5002508AC00013045
:100BAC00B007FF30300784008A1102208A11A5009B
:100BBC002508B10031080319C32E2530310603195D
:100BCC00F42D31088A1156258A1101308312031332
:100BDC00A9070318AA0A0030AA07D52DA801252EAB
:100BEC002C08840083130008A5002508AD000130F3
:100BFC00A5002508AC072D08031D082EB630A5004E
:100C0C002508AD002D0884008A1102208A11003AB3
:100C1C000319D52D2D0884008A1102208A118A11FE
:100C2C0056258A11013083120313A5002508AD0740
:100C3C000130A9070318AA0A0030AA07082E0130B0
:100C4C00B007FF30300784008A1102208A11B100EE
:100C5C00003A0319C32E643A03193B2E0D3A0319BB
:100C6C003B2E1A3A0319F62DD52D2C08840083132C
:100C7C000008AE00840A0008AF000230A500250869
:100C8C00AC07AF1F522E0330A5002508A804AE09EF
:100C9C00AF09AE0A0319AF0AB101B10A053031062A
:100CAC000319752E3108A5002507013E84008A1111
:100CBC0002208A11A6008A1102208A11A700270897
:100CCC002F02031D6B2E26082E02031C752E0130DD
:100CDC00A5002508B10705303106031D582E28083C
:100CEC0003390319852E2D308A1156258A110130AE
:100CFC0083120313A9070318AA0A0030AA073108A4
:100D0C00A5002508AB00FF30A5002508AB072B0A72
:100D1C000319D52D0A30F8000030F9002B08A50076
:100D2C002507013E84008A1102208A11F0008A11E5
:100D3C0002208A11F1002F08F3002E08F2008A110C
:100D4C0090258A117108FB007008FA008A115E2543
:100D5C008A117808303E83120313A6002608B100CE
:100D6C0031088A1156258A11013083120313A90701
:100D7C000318AA0A0030AA07892E2A08A1002908FC
:100D8C00A00008008316031305150616151583120B
:100D9C00031715168316031386168617831203176B
:100DAC009E019F011F145030831603139F00A03027
:100DBC00831203139F0083160313981618128312C1
:100DCC00031398171816831603131815333099004C
:100DDC00AD308A11CC258A110B3083120313B40069
:100DEC002630B3006630B200B20BFA2EB30BFA2EDB
:100DFC00B40BFA2E012F013083120313A000003024
:100E0C00A1009E308A11CC258A110B30831203135A
:100E1C00B4002630B3006630B200B20B132FB30B04
:100E2C00132FB40B132F1A2F5A308A11CC258A1179
:100E3C00663083120313B4007730B3002430B20051
:100E4C00B20B262FB30B262FB40B262F00008312C8
:100E5C0003131F149F140330B3009730B200B20B6E
:100E6C00352FB30B352F3A2F83120313061E402F49
:100E7C00BD30412FC130B2003208BA001E08B2009A
:100E8C00B3013208A0003308A100831603131E0817
:100E9C0083120313B400B5013408A2003508A30073
:100EAC003A08B6003608A4000B308A11CC258A11FA
:100EBC00831203132008B7003708B90077308A1162
:100ECC00CC258A11831203132008B2003208B80013
:100EDC003908B2003208B8075030A0000030A10029
:100EEC0034308A11CC258A110B3083120313B400D1
:100EFC002630B3006630B200B20B822FB30B822FB8
:100F0C00B40B822F892F831203133808B200B3015C
:100F1C003208A0003308A1008E308A11CC258A112A
:100F2C00153083120313B4004B30B300D130B20030
:100F3C00B20B9E2FB30B9E2FB40B9E2F000083126F
:100F4C0003131E08B200B3013208A0003308A1003D
:100F5C00831603131E0883120313B400B50134085F
:100F6C00A2003508A3003A08B6003608A4000B30DE
:100F7C008A11CC258A11831203132008B700370875
:100F8C00B90077308A11CC258A11831203132008FB
:100F9C00B2003208B900CB30B400ED30B3004C30A5
:100FAC00B200B20BD72FB30BD72FB40BD72FDE2F2A
:100FBC00CB3083120313B400ED30B3004C30B200CD
:100FCC00B20BE62FB30BE62FB40BE62FED2FCB3085
:100FDC0083120313B400ED30B3004C30B200B20BEB
:100FEC00F52FB30BF52FB40BF52FFC2F2D2F830101
:040FFC008A11C82E60
:02400E00F2FCC2
:00000001FF
